:100000000C9434000C9451000C9451000C94510049
:100010000C9451000C9451000C9451000C9451001C
:100020000C9451000C9451000C9451000C9451000C
:100030000C9451000C9451000C9451000C945100FC
:100040000C9451000C9451000C9451000C945100EC
:100050000C9451000C9451000C9451000C945100DC
:100060000C9451000C94510011241FBECFEFD4E02A
:10007000DEBFCDBF21E0A4E0B1E001C01D92AC3CE9
:10008000B207E1F711E0A0E0B1E0E8E5FAE002C074
:1000900005900D92A430B107D9F70E946C020C9420
:1000A0002A050C9400001F93CF93DF93EC0110E01E
:1000B00061E0812F0E94D702CE010E94150360E00B
:1000C000812F0E94D7021F5F143091F7DF91CF91EB
:1000D0001F91089588EC90E00E94530086E990E01B
:1000E0000E94530082E390E00C945300CF93DF937F
:1000F000EC0161E080E00E94D70261E081E00E94B3
:10010000D70261E082E00E94D70261E083E00E94B2
:10011000D702CE010E94150360E080E00E94D70262
:1001200060E081E00E94D70260E082E00E94D70296
:1001300060E083E0DF91CF910C94D7028CE291E0F4
:100140000E9476008CE291E00E94530088EC90E0DF
:100150000E94760088EC90E00E94760084E690E0B1
:100160000E94530082E390E00E94530089E190E0F6
:100170000E94530084E690E00E94760084E690E0BE
:100180000C94760088EC90E00E94760088EC90E079
:100190000E94150388EC90E00E94760080E293E0D4
:1001A0000C94150360E080E00E94D70260E081E0DB
:1001B0000E94D70260E083E00E94D70260E082E004
:1001C0000C94D702AF92BF92CF92DF92EF92FF9240
:1001D0000F931F93CF93DF936C0188EB9BE0B601E5
:1001E0000E9441047B01C4E0D1E000E010E0C016B1
:1001F000D10694F0C7010E94150361E088810E9436
:10020000D702C7010E94150360E0888122960E94F0
:10021000D7020F5F1F4FEBCFDF91CF911F910F914F
:10022000FF90EF90DF90CF90BF90AF900C94D200F2
:10023000EF92FF920F931F93CF93DF937C0104E023
:1002400011E0C0E0D0E0CE15DF0564F463E070E0BB
:1002500080E090E00E949802F801819391938F01D1
:100260002196F1CFDF91CF911F910F91FF90EF90E9
:100270000895EF92FF920F931F93CF93DF9300E0C7
:1002800010E00E94FF02C82FDD27C7FDD0950E9415
:100290000A03E82EFF24E7FCF094209779F0CF3F83
:1002A0008FEFD80711F461E00AC0C130D10571F4B5
:1002B00060E080E00E94D70261E005C060E080E07D
:1002C0000E94D70260E081E00E94D702E114F104AD
:1002D000E9F08FEFE816F80679F461E083E00E9418
:1002E000D70260E082E00E94D702CF3F8FEFD807AD
:1002F00019F50FEF1FEF31C081E0E816F10471F43A
:1003000060E083E00E94D70261E005C060E083E026
:100310000E94D70260E082E00E94D702CF3F8FEFB9
:10032000D807D9F0C130D10551F481E0E816F104C5
:10033000A1F401E010E0A5CFC130D10571F00F3F6D
:100340008FEF180771F4CD2B19F00FEF1FEF99CF36
:10035000EF28D9F70E949E000CC00F3F8FEF1807BF
:10036000A1F30130110509F08CCFCD2B11F7EF2847
:1003700001F7C801DF91CF911F910F91FF90EF908E
:1003800008958F929F92AF92BF92CF92DF92EF9299
:10039000FF920F931F93CF93DF934C01E12CF12C2D
:1003A000A12CB12C8A149B040CF484C00E94FF027F
:1003B000C82FDD27C7FDD0950E940A03082F1127FB
:1003C00007FD1095F501EE0FFF1FEC5FFE4FC0809B
:1003D000D180209779F0CF3F8FEFD80711F461E0FB
:1003E0000AC0C130D10571F460E080E00E94D702FC
:1003F00061E005C060E080E00E94D70260E081E03B
:100400000E94D7020115110579F00F3F8FEF1807F1
:1004100011F461E00AC00130110571F460E083E07D
:100420000E94D70261E005C060E083E00E94D7022D
:1004300060E082E00E94D70281E0C816D104A1F0FA
:100440001CF4CD2851F024C082E0C816D10499F0E4
:1004500083E0C816D104B1F01BC0012B71F52097C1
:10046000D9F0219719F529C0012B39F52097A1F072
:100470002196E1F422C0CD2B01F50F3F8FEF180735
:1004800049F41BC0CD2BC9F40130110519F415C076
:10049000CD2B61F4012B51F4E114F10409F482CF66
:1004A0008FEFA81AB80AE12CF12C7CCFEE24E3944C
:1004B000F12C78CF81E090E002C080E090E0DF9105
:1004C000CF911F910F91FF90EF90DF90CF90BF9051
:1004D000AF909F908F9008950E94D3020E94FB02DC
:1004E0000E943901019619F0C2E0D0E002C0CEE1CD
:1004F000D0E00E94D20084E690E00E94180188EECD
:1005000093E00E941503CE010E94E200CE010E94FA
:10051000C101892B19F40E946A00E2CF0E94C20037
:1005200080ED97E00E9415030E94D2002196EBCF48
:10053000CF92DF92EF92FF920F931F93CF93DF93AF
:10054000EC017B010E94B7048C01B7016C1B7D0B91
:100550006F5F7F4F882777FD8095982F0E94520309
:100560006B017C01B801882777FD8095982F0E9448
:1005700052039B01AC01C701B6010E94B60320E003
:1005800030E040E058E30E94B6030E941F03CE0112
:10059000860F971FDF91CF911F910F91FF90EF90E2
:1005A000DF90CF90089587B38F6087BB089566234F
:1005B00089F0813049F0813028F0823039F0833081
:1005C000C9F406C0C09A0895C19A0895C29A0895C0
:1005D000C39A0895813049F0813028F0823039F093
:1005E000833041F406C0C0980895C1980895C29818
:1005F0000895C398089585B3806F85BB089593B31C
:100600009073903111F48FEF089580E0903209F4E7
:1006100081E0089593B3907C903411F48FEF0895A6
:1006200080E0903809F481E0089526EA3EE004C0B5
:10063000F9013197F1F701970097D1F7089504D0A8
:100640006894B1118DC0089570D088F09F5790F0D4
:10065000B92F9927B751A0F0D1F0660F771F881FE7
:10066000991F1AF0BA95C9F712C0B13081F077D04E
:10067000B1E0089574C0672F782F8827B85F39F0EC
:10068000B93FCCF3869577956795B395D9F73EF446
:1006900090958095709561957F4F8F4F9F4F0895EE
:1006A000E89409C097FB3EF490958095709561950C
:1006B0007F4F8F4F9F4F9923A9F0F92F96E9BB27C2
:1006C0009395F695879577956795B795F111F8CF3E
:1006D000FAF4BB0F11F460FF1BC06F5F7F4F8F4FA9
:1006E0009F4F16C0882311F096E911C0772321F09F
:1006F0009EE8872F762F05C0662371F096E8862F37
:1007000070E060E02AF09A95660F771F881FDAF78D
:10071000880F9695879597F9089557FD9058440F3F
:10072000551F59F05F3F71F04795880F97FB991F50
:1007300061F09F3F79F0879508951216130614060D
:10074000551FF2CF4695F1DF08C01616170618069A
:10075000991FF1CF86957105610508940895E89475
:10076000BB2766277727CB0197F908950BD078C070
:1007700069D028F06ED018F0952309F05AC05FC0F8
:100780001124EECFCADFA0F3959FD1F3950F50E06F
:10079000551F629FF001729FBB27F00DB11D639F33
:1007A000AA27F00DB11DAA1F649F6627B00DA11DD9
:1007B000661F829F2227B00DA11D621F739FB00D7F
:1007C000A11D621F839FA00D611D221F749F3327EF
:1007D000A00D611D231F849F600D211D822F762F88
:1007E0006A2F11249F5750408AF0E1F088234AF085
:1007F000EE0FFF1FBB1F661F771F881F91505040D1
:10080000A9F79E3F510570F014C0AACF5F3FECF3EB
:10081000983EDCF3869577956795B795F795E795BC
:100820009F5FC1F7FE2B880F911D9695879597F9CD
:10083000089597F99F6780E870E060E008959FEF62
:1008400080EC089500240A94161617061806090667
:10085000089500240A941216130614060506089536
:10086000092E0394000C11F4882352F0BB0F40F4BE
:10087000BF2B11F460FF04C06F5F7F4F8F4F9F4FFE
:10088000089597FB072E16F4009407D077FD09D042
:100890000E94550407FC05D03EF4909581959F4F2A
:1008A0000895709561957F4F0895AA1BBB1B51E178
:1008B00007C0AA1FBB1FA617B70710F0A61BB70BD0
:1008C000881F991F5A95A9F780959095BC01CD0175
:1008D00008958F929F92AF92BF92CF92DF92EF9244
:1008E000FF92CF93DF93EC01688179818A819B81AC
:1008F000611571058105910521F464E279ED8BE5BF
:1009000097E02DE133EF41E050E00E94C704490138
:100910005A019B01AC01A7EAB1E40E94E6046B0115
:100920007C01ACEEB4EFA50194010E94F404C60E64
:10093000D71EE81EF91EF7FE06C081E0C81AD108CE
:10094000E10880E8F80AC882D982EA82FB82C601FF
:100950009F77DF91CF91FF90EF90DF90CF90BF9086
:10096000AF909F908F9008950E946904089580E051
:1009700091E00E9469040895A0E0B0E08093000136
:1009800090930101A0930201B09303010895052EF5
:1009900097FB1EF400940E94DE0457FD07D00E94CE
:1009A000F90407FC03D04EF40C94DE0450954095F6
:1009B000309521953F4F4F4F5F4F0895909580950B
:1009C000709561957F4F8F4F9F4F08950E941B0533
:1009D000A59F900DB49F900DA49F800D911D112493
:1009E0000895B7FF0C94E6040E94E604821B930B63
:1009F0000895A1E21A2EAA1BBB1BFD010DC0AA1F60
:100A0000BB1FEE1FFF1FA217B307E407F50720F077
:100A1000A21BB30BE40BF50B661F771F881F991FF2
:100A20001A9469F760957095809590959B01AC013B
:100A3000BD01CF010895A29FB001B39FC001A39F44
:100A4000700D811D1124911DB29F700D811D112407
:080A5000911D0895F894FFCFF9
:040A58000100000099
:00000001FF
